{"abi":[{"type":"constructor","inputs":[{"name":"_profileRegistry","type":"address","internalType":"address"},{"name":"_platformWallet","type":"address","internalType":"address payable"}],"stateMutability":"nonpayable"},{"type":"receive","stateMutability":"payable"},{"type":"function","name":"FEE_DENOMINATOR","inputs":[],"outputs":[{"name":"","type":"uint256","internalType":"uint256"}],"stateMutability":"view"},{"type":"function","name":"MIN_TIP_AMOUNT","inputs":[],"outputs":[{"name":"","type":"uint256","internalType":"uint256"}],"stateMutability":"view"},{"type":"function","name":"PLATFORM_FEE_RATE","inputs":[],"outputs":[{"name":"","type":"uint256","internalType":"uint256"}],"stateMutability":"view"},{"type":"function","name":"calculateFee","inputs":[{"name":"amount","type":"uint256","internalType":"uint256"}],"outputs":[{"name":"","type":"uint256","internalType":"uint256"}],"stateMutability":"pure"},{"type":"function","name":"collectPlatformFees","inputs":[{"name":"amount","type":"uint256","internalType":"uint256"}],"outputs":[],"stateMutability":"nonpayable"},{"type":"function","name":"emergencyWithdraw","inputs":[],"outputs":[],"stateMutability":"nonpayable"},{"type":"function","name":"getActiveCreators","inputs":[],"outputs":[{"name":"","type":"uint256","internalType":"uint256"}],"stateMutability":"view"},{"type":"function","name":"getRecentTips","inputs":[{"name":"limit","type":"uint256","internalType":"uint256"}],"outputs":[{"name":"","type":"tuple[]","internalType":"struct TipzCore.TipRecord[]","components":[{"name":"id","type":"uint256","internalType":"uint256"},{"name":"fromAddress","type":"address","internalType":"address"},{"name":"fromUsername","type":"string","internalType":"string"},{"name":"toUsername","type":"string","internalType":"string"},{"name":"amount","type":"uint256","internalType":"uint256"},{"name":"message","type":"string","internalType":"string"},{"name":"timestamp","type":"uint256","internalType":"uint256"}]}],"stateMutability":"view"},{"type":"function","name":"getTipById","inputs":[{"name":"tipId","type":"uint256","internalType":"uint256"}],"outputs":[{"name":"","type":"tuple","internalType":"struct TipzCore.TipRecord","components":[{"name":"id","type":"uint256","internalType":"uint256"},{"name":"fromAddress","type":"address","internalType":"address"},{"name":"fromUsername","type":"string","internalType":"string"},{"name":"toUsername","type":"string","internalType":"string"},{"name":"amount","type":"uint256","internalType":"uint256"},{"name":"message","type":"string","internalType":"string"},{"name":"timestamp","type":"uint256","internalType":"uint256"}]}],"stateMutability":"view"},{"type":"function","name":"getTipHistory","inputs":[{"name":"user","type":"address","internalType":"address"},{"name":"limit","type":"uint256","internalType":"uint256"}],"outputs":[{"name":"","type":"tuple[]","internalType":"struct TipzCore.TipRecord[]","components":[{"name":"id","type":"uint256","internalType":"uint256"},{"name":"fromAddress","type":"address","internalType":"address"},{"name":"fromUsername","type":"string","internalType":"string"},{"name":"toUsername","type":"string","internalType":"string"},{"name":"amount","type":"uint256","internalType":"uint256"},{"name":"message","type":"string","internalType":"string"},{"name":"timestamp","type":"uint256","internalType":"uint256"}]}],"stateMutability":"view"},{"type":"function","name":"getTipsReceived","inputs":[{"name":"username","type":"string","internalType":"string"},{"name":"limit","type":"uint256","internalType":"uint256"}],"outputs":[{"name":"","type":"tuple[]","internalType":"struct TipzCore.TipRecord[]","components":[{"name":"id","type":"uint256","internalType":"uint256"},{"name":"fromAddress","type":"address","internalType":"address"},{"name":"fromUsername","type":"string","internalType":"string"},{"name":"toUsername","type":"string","internalType":"string"},{"name":"amount","type":"uint256","internalType":"uint256"},{"name":"message","type":"string","internalType":"string"},{"name":"timestamp","type":"uint256","internalType":"uint256"}]}],"stateMutability":"view"},{"type":"function","name":"getTipsSent","inputs":[{"name":"sender","type":"address","internalType":"address"},{"name":"limit","type":"uint256","internalType":"uint256"}],"outputs":[{"name":"","type":"tuple[]","internalType":"struct TipzCore.TipRecord[]","components":[{"name":"id","type":"uint256","internalType":"uint256"},{"name":"fromAddress","type":"address","internalType":"address"},{"name":"fromUsername","type":"string","internalType":"string"},{"name":"toUsername","type":"string","internalType":"string"},{"name":"amount","type":"uint256","internalType":"uint256"},{"name":"message","type":"string","internalType":"string"},{"name":"timestamp","type":"uint256","internalType":"uint256"}]}],"stateMutability":"view"},{"type":"function","name":"getTopCreators","inputs":[{"name":"limit","type":"uint256","internalType":"uint256"}],"outputs":[{"name":"","type":"tuple[]","internalType":"struct TipzCore.LeaderboardEntry[]","components":[{"name":"username","type":"string","internalType":"string"},{"name":"walletAddress","type":"address","internalType":"address"},{"name":"totalAmount","type":"uint256","internalType":"uint256"},{"name":"count","type":"uint256","internalType":"uint256"},{"name":"creditScore","type":"uint256","internalType":"uint256"},{"name":"rank","type":"uint256","internalType":"uint256"}]}],"stateMutability":"view"},{"type":"function","name":"getTopTippers","inputs":[{"name":"limit","type":"uint256","internalType":"uint256"}],"outputs":[{"name":"","type":"tuple[]","internalType":"struct TipzCore.LeaderboardEntry[]","components":[{"name":"username","type":"string","internalType":"string"},{"name":"walletAddress","type":"address","internalType":"address"},{"name":"totalAmount","type":"uint256","internalType":"uint256"},{"name":"count","type":"uint256","internalType":"uint256"},{"name":"creditScore","type":"uint256","internalType":"uint256"},{"name":"rank","type":"uint256","internalType":"uint256"}]}],"stateMutability":"view"},{"type":"function","name":"getTotalTipCount","inputs":[],"outputs":[{"name":"","type":"uint256","internalType":"uint256"}],"stateMutability":"view"},{"type":"function","name":"getTotalUsers","inputs":[],"outputs":[{"name":"","type":"uint256","internalType":"uint256"}],"stateMutability":"view"},{"type":"function","name":"getTotalVolume","inputs":[],"outputs":[{"name":"","type":"uint256","internalType":"uint256"}],"stateMutability":"view"},{"type":"function","name":"getUserRank","inputs":[{"name":"username","type":"string","internalType":"string"}],"outputs":[{"name":"","type":"uint256","internalType":"uint256"}],"stateMutability":"view"},{"type":"function","name":"getWithdrawableBalance","inputs":[{"name":"user","type":"address","internalType":"address"}],"outputs":[{"name":"","type":"uint256","internalType":"uint256"}],"stateMutability":"view"},{"type":"function","name":"owner","inputs":[],"outputs":[{"name":"","type":"address","internalType":"address"}],"stateMutability":"view"},{"type":"function","name":"pause","inputs":[],"outputs":[],"stateMutability":"nonpayable"},{"type":"function","name":"paused","inputs":[],"outputs":[{"name":"","type":"bool","internalType":"bool"}],"stateMutability":"view"},{"type":"function","name":"platformWallet","inputs":[],"outputs":[{"name":"","type":"address","internalType":"address payable"}],"stateMutability":"view"},{"type":"function","name":"profileRegistry","inputs":[],"outputs":[{"name":"","type":"address","internalType":"contract ITipzProfile"}],"stateMutability":"view"},{"type":"function","name":"renounceOwnership","inputs":[],"outputs":[],"stateMutability":"nonpayable"},{"type":"function","name":"sendTip","inputs":[{"name":"toUsername","type":"string","internalType":"string"},{"name":"message","type":"string","internalType":"string"}],"outputs":[],"stateMutability":"payable"},{"type":"function","name":"transferOwnership","inputs":[{"name":"newOwner","type":"address","internalType":"address"}],"outputs":[],"stateMutability":"nonpayable"},{"type":"function","name":"unpause","inputs":[],"outputs":[],"stateMutability":"nonpayable"},{"type":"function","name":"updatePlatformWallet","inputs":[{"name":"newPlatformWallet","type":"address","internalType":"address payable"}],"outputs":[],"stateMutability":"nonpayable"},{"type":"function","name":"withdrawAllTips","inputs":[],"outputs":[],"stateMutability":"nonpayable"},{"type":"function","name":"withdrawTips","inputs":[{"name":"amount","type":"uint256","internalType":"uint256"}],"outputs":[],"stateMutability":"nonpayable"},{"type":"event","name":"OwnershipTransferred","inputs":[{"name":"previousOwner","type":"address","indexed":true,"internalType":"address"},{"name":"newOwner","type":"address","indexed":true,"internalType":"address"}],"anonymous":false},{"type":"event","name":"Paused","inputs":[{"name":"account","type":"address","indexed":false,"internalType":"address"}],"anonymous":false},{"type":"event","name":"PlatformFeeCollected","inputs":[{"name":"collector","type":"address","indexed":true,"internalType":"address"},{"name":"amount","type":"uint256","indexed":false,"internalType":"uint256"},{"name":"timestamp","type":"uint256","indexed":false,"internalType":"uint256"}],"anonymous":false},{"type":"event","name":"PlatformWalletUpdated","inputs":[{"name":"oldWallet","type":"address","indexed":true,"internalType":"address"},{"name":"newWallet","type":"address","indexed":true,"internalType":"address"},{"name":"timestamp","type":"uint256","indexed":false,"internalType":"uint256"}],"anonymous":false},{"type":"event","name":"TipSent","inputs":[{"name":"tipId","type":"uint256","indexed":true,"internalType":"uint256"},{"name":"from","type":"address","indexed":true,"internalType":"address"},{"name":"to","type":"address","indexed":true,"internalType":"address"},{"name":"fromUsername","type":"string","indexed":false,"internalType":"string"},{"name":"toUsername","type":"string","indexed":false,"internalType":"string"},{"name":"amount","type":"uint256","indexed":false,"internalType":"uint256"},{"name":"platformFee","type":"uint256","indexed":false,"internalType":"uint256"},{"name":"recipientAmount","type":"uint256","indexed":false,"internalType":"uint256"},{"name":"message","type":"string","indexed":false,"internalType":"string"},{"name":"timestamp","type":"uint256","indexed":false,"internalType":"uint256"}],"anonymous":false},{"type":"event","name":"TipsWithdrawn","inputs":[{"name":"user","type":"address","indexed":true,"internalType":"address"},{"name":"amount","type":"uint256","indexed":false,"internalType":"uint256"},{"name":"timestamp","type":"uint256","indexed":false,"internalType":"uint256"}],"anonymous":false},{"type":"event","name":"Unpaused","inputs":[{"name":"account","type":"address","indexed":false,"internalType":"address"}],"anonymous":false},{"type":"error","name":"EnforcedPause","inputs":[]},{"type":"error","name":"ExpectedPause","inputs":[]},{"type":"error","name":"InsufficientBalance","inputs":[]},{"type":"error","name":"InvalidPlatformWallet","inputs":[]},{"type":"error","name":"OwnableInvalidOwner","inputs":[{"name":"owner","type":"address","internalType":"address"}]},{"type":"error","name":"OwnableUnauthorizedAccount","inputs":[{"name":"account","type":"address","internalType":"address"}]},{"type":"error","name":"RecipientNotRegistered","inputs":[]},{"type":"error","name":"ReentrancyGuardReentrantCall","inputs":[]},{"type":"error","name":"SelfTipNotAllowed","inputs":[]},{"type":"error","name":"TipAmountTooLow","inputs":[]},{"type":"error","name":"TransferFailed","inputs":[]},{"type":"error","name":"WithdrawalAmountExceedsBalance","inputs":[]},{"type":"error","name":"WithdrawalAmountZero","inputs":[]}],"bytecode":{"object":"0x60a0604052600160045534801562000015575f80fd5b50604051620046893803806200468983398101604081905262000038916200016e565b33806200005e57604051631e4fbdf760e01b81525f600482015260240160405180910390fd5b620000698162000107565b5060017f9b779b17422d0df92223018b32b4d1fa46e071723d6817e2486d003becc55f00556001600160a01b038216620000b6576040516387ac4dbf60e01b815260040160405180910390fd5b6001600160a01b038116620000de576040516387ac4dbf60e01b815260040160405180910390fd5b6001600160a01b03918216608052600180546001600160a01b03191691909216179055620001ab565b5f80546001600160a01b038381166001600160a01b0319831681178455604051919092169283917f8be0079c531659141344cd1fd0a4f28419497f9722a3daafe3b4186f6b6457e09190a35050565b6001600160a01b03811681146200016b575f80fd5b50565b5f806040838503121562000180575f80fd5b82516200018d8162000156565b6020840151909250620001a08162000156565b809150509250929050565b608051614416620002735f395f81816104e901528181610a8d01528181610b1b01528181610ed601528181610f5f015281816110cd015281816111630152818161120c015281816112c70152818161135f01528181611456015281816114e9015281816115f801528181611a0a01528181611b3c01528181611c2201528181611ea701528181611f2b01528181612d0701528181612d9d015281816132a10152818161332a0152818161358c015281816136220152818161372b01526137b501526144165ff3fe6080604052600436106101d3575f3560e01c8063843592d3116100fd578063c9bb1a4811610092578063eba3116611610062578063eba3116614610553578063f2fde38b14610572578063fa2af9da14610591578063ffcb9ccd146105b0575f80fd5b8063c9bb1a48146104d8578063d73792a91461050b578063db2e21bc14610520578063e843f61c14610534575f80fd5b80639be572f6116100cd5780639be572f61461045a578063a0d1fe421461046e578063ada4ef301461048d578063c7f9488c146104ac575f80fd5b8063843592d3146103c35780638456cb59146103f75780638da5cb5b1461040b57806399a5d7471461043b575f80fd5b80632930fa491161017357806354cafb041161014357806354cafb04146103555780635c975abb14610368578063715018a6146103905780637e433a5c146103a4575f80fd5b80632930fa49146102ff57806338752e65146103135780633f4ba83a14610327578063429895ac1461033b575f80fd5b80630d61b95f116101ae5780630d61b95f1461028c5780631236660b146102ad578063127da26a146102c15780631cef502b146102e0575f80fd5b8063019f4c091461020d57806307f4c8f9146102425780630b9d98e91461026e575f80fd5b36610209576001546001600160a01b03165f90815260026020526040812080543492906102019084906139bc565b925050819055005b5f80fd5b348015610218575f80fd5b5061022c6102273660046139e3565b6105c4565b6040516102399190613ade565b60405180910390f35b34801561024d575f80fd5b5061026161025c366004613b3e565b610981565b6040516102399190613b55565b348015610279575f80fd5b506009545b604051908152602001610239565b348015610297575f80fd5b506102ab6102a6366004613b3e565b610e3a565b005b3480156102b8575f80fd5b5061027e61107a565b3480156102cc575f80fd5b5061027e6102db366004613c8e565b611208565b3480156102eb575f80fd5b5061022c6102fa3660046139e3565b611596565b34801561030a575f80fd5b5061027e60c881565b34801561031e575f80fd5b5060035461027e565b348015610332575f80fd5b506102ab611ad9565b348015610346575f80fd5b5061027e66038d7ea4c6800081565b6102ab610363366004613d4b565b611aeb565b348015610373575f80fd5b505f54600160a01b900460ff166040519015158152602001610239565b34801561039b575f80fd5b506102ab6120cd565b3480156103af575f80fd5b5061022c6103be366004613db1565b6120de565b3480156103ce575f80fd5b5061027e6103dd366004613df8565b6001600160a01b03165f9081526002602052604090205490565b348015610402575f80fd5b506102ab61250c565b348015610416575f80fd5b505f546001600160a01b03165b6040516001600160a01b039091168152602001610239565b348015610446575f80fd5b5061027e610455366004613b3e565b61251c565b348015610465575f80fd5b5061027e612535565b348015610479575f80fd5b5061022c610488366004613b3e565b612543565b348015610498575f80fd5b506102ab6104a7366004613df8565b612832565b3480156104b7575f80fd5b506104cb6104c6366004613b3e565b6128c4565b6040516102399190613e1a565b3480156104e3575f80fd5b506104237f000000000000000000000000000000000000000000000000000000000000000081565b348015610516575f80fd5b5061027e61271081565b34801561052b575f80fd5b506102ab612b54565b34801561053f575f80fd5b5061026161054e366004613b3e565b612c20565b34801561055e575f80fd5b506102ab61056d366004613b3e565b6130b6565b34801561057d575f80fd5b506102ab61058c366004613df8565b6131f7565b34801561059c575f80fd5b50600154610423906001600160a01b031681565b3480156105bb575f80fd5b506102ab613231565b60605f805b60035481101561063157846001600160a01b0316600382815481106105f0576105f0613e2c565b5f9182526020909120600160079092020101546001600160a01b03160361061f578161061b81613e40565b9250505b8061062981613e40565b9150506105c9565b505f808411801561064157508184105b61064b578161064d565b835b90505f816001600160401b0381111561066857610668613bfb565b6040519080825280602002602001820160405280156106a157816020015b61068e61392c565b8152602001906001900390816106865790505b506003549091505f905b5f811180156106b957508382105b15610973576001600160a01b03881660036106d5600184613e58565b815481106106e5576106e5613e2c565b5f9182526020909120600160079092020101546001600160a01b031603610961576003610713600183613e58565b8154811061072357610723613e2c565b905f5260205f2090600702016040518060e00160405290815f8201548152602001600182015f9054906101000a90046001600160a01b03166001600160a01b03166001600160a01b0316815260200160028201805461078190613e6b565b80601f01602080910402602001604051908101604052809291908181526020018280546107ad90613e6b565b80156107f85780601f106107cf576101008083540402835291602001916107f8565b820191905f5260205f20905b8154815290600101906020018083116107db57829003601f168201915b5050505050815260200160038201805461081190613e6b565b80601f016020809104026020016040519081016040528092919081815260200182805461083d90613e6b565b80156108885780601f1061085f57610100808354040283529160200191610888565b820191905f5260205f20905b81548152906001019060200180831161086b57829003601f168201915b50505050508152602001600482015481526020016005820180546108ab90613e6b565b80601f01602080910402602001604051908101604052809291908181526020018280546108d790613e6b565b80156109225780601f106108f957610100808354040283529160200191610922565b820191905f5260205f20905b81548152906001019060200180831161090557829003601f168201915b5050505050815260200160068201548152505083838151811061094757610947613e2c565b6020026020010181905250818061095d90613e40565b9250505b8061096b81613ea3565b9150506106ab565b509093505050505b92915050565b6005546060905f036109c457604080515f80825260208201909252906109bd565b6109aa61396e565b8152602001906001900390816109a25790505b5092915050565b6005545f906001600160401b038111156109e0576109e0613bfb565b604051908082528060200260200182016040528015610a1957816020015b610a0661396e565b8152602001906001900390816109fe5790505b5090505f805b600554811015610c33575f60058281548110610a3d57610a3d613e2c565b5f9182526020808320909101546001600160a01b031680835260079091526040909120549091508015801590610af6575060405163c3c5a54760e01b81526001600160a01b0383811660048301527f0000000000000000000000000000000000000000000000000000000000000000169063c3c5a54790602401602060405180830381865afa158015610ad2573d5f803e3d5ffd5b505050506040513d601f19601f82011682018060405250810190610af69190613ecc565b15610c1e5760405162f53a4760e41b81526001600160a01b0383811660048301525f917f000000000000000000000000000000000000000000000000000000000000000090911690630f53a470906024015f60405180830381865afa158015610b61573d5f803e3d5ffd5b505050506040513d5f823e601f3d908101601f19168201604052610b889190810190613f63565b90506040518060c0016040528082602001518152602001846001600160a01b0316815260200183815260200160085f866001600160a01b03166001600160a01b031681526020019081526020015f205481526020018260a0015163ffffffff1681526020015f815250868681518110610c0357610c03613e2c565b60200260200101819052508480610c1990613e40565b955050505b50508080610c2b90613e40565b915050610a1f565b505f816001600160401b03811115610c4d57610c4d613bfb565b604051908082528060200260200182016040528015610c8657816020015b610c7361396e565b815260200190600190039081610c6b5790505b5090505f5b82811015610cdd57838181518110610ca557610ca5613e2c565b6020026020010151828281518110610cbf57610cbf613e2c565b60200260200101819052508080610cd590613e40565b915050610c8b565b50610ce781613441565b5f5b8151811015610d3057610cfd8160016139bc565b828281518110610d0f57610d0f613e2c565b602090810291909101015160a0015280610d2881613e40565b915050610ce9565b50845f03610d7257604080515f8082526020820190925290610d68565b610d5561396e565b815260200190600190039081610d4d5790505b5095945050505050565b5f81518610610d82578151610d84565b855b90505f816001600160401b03811115610d9f57610d9f613bfb565b604051908082528060200260200182016040528015610dd857816020015b610dc561396e565b815260200190600190039081610dbd5790505b5090505f5b82811015610e2f57838181518110610df757610df7613e2c565b6020026020010151828281518110610e1157610e11613e2c565b60200260200101819052508080610e2790613e40565b915050610ddd565b509695505050505050565b610e42613544565b610e4a61355f565b805f03610e6a57604051630eb8664d60e31b815260040160405180910390fd5b335f9081526002602052604090205480821115610e9a576040516310bb459b60e11b815260040160405180910390fd5b610ea48282613e58565b335f818152600260205260409081902092909255905163c3c5a54760e01b815260048101919091526001600160a01b037f0000000000000000000000000000000000000000000000000000000000000000169063c3c5a54790602401602060405180830381865afa158015610f1b573d5f803e3d5ffd5b505050506040513d601f19601f82011682018060405250810190610f3f9190613ecc565b15610fbe5760405162d9774960e01b8152336004820152602481018390527f00000000000000000000000000000000000000000000000000000000000000006001600160a01b03169062d97749906044015f604051808303815f87803b158015610fa7575f80fd5b505af1158015610fb9573d5f803e3d5ffd5b505050505b6040515f90339084908381818185875af1925050503d805f8114610ffd576040519150601f19603f3d011682016040523d82523d5f602084013e611002565b606091505b5050905080611024576040516312171d8360e31b815260040160405180910390fd5b6040805184815242602082015233917f788ed5f40f3b0b54693ff3a6857a71316636ea70ef65b0d1436f661291f0697191015b60405180910390a2505061107760015f805160206143c183398151915255565b50565b5f8080611085613589565b90505f5b81811015611200575f61109b8261360a565b90506001600160a01b0381161580611138575060405163c3c5a54760e01b81526001600160a01b0382811660048301527f0000000000000000000000000000000000000000000000000000000000000000169063c3c5a54790602401602060405180830381865afa158015611112573d5f803e3d5ffd5b505050506040513d601f19601f820116820180604052508101906111369190613ecc565b155b1561114357506111ee565b60405162f53a4760e41b81526001600160a01b0382811660048301525f917f000000000000000000000000000000000000000000000000000000000000000090911690630f53a470906024015f60405180830381865afa1580156111a9573d5f803e3d5ffd5b505050506040513d5f823e601f3d908101601f191682016040526111d09190810190613f63565b60e0810151909150156111eb57846111e781613e40565b9550505b50505b806111f881613e40565b915050611089565b509092915050565b5f807f00000000000000000000000000000000000000000000000000000000000000006001600160a01b0316636322961d846040518263ffffffff1660e01b8152600401611256919061409a565b602060405180830381865afa158015611271573d5f803e3d5ffd5b505050506040513d601f19601f8201168201806040525081019061129591906140ac565b90506001600160a01b0381161580611332575060405163c3c5a54760e01b81526001600160a01b0382811660048301527f0000000000000000000000000000000000000000000000000000000000000000169063c3c5a54790602401602060405180830381865afa15801561130c573d5f803e3d5ffd5b505050506040513d601f19601f820116820180604052508101906113309190613ecc565b155b1561133f57505f92915050565b60405162f53a4760e41b81526001600160a01b0382811660048301525f917f000000000000000000000000000000000000000000000000000000000000000090911690630f53a470906024015f60405180830381865afa1580156113a5573d5f803e3d5ffd5b505050506040513d5f823e601f3d908101601f191682016040526113cc9190810190613f63565b90508060e001515f036113e257505f9392505050565b60015f6113ed613589565b90505f5b8181101561158b575f6114038261360a565b90506001600160a01b038116158061142c5750856001600160a01b0316816001600160a01b0316145b156114375750611579565b60405163c3c5a54760e01b81526001600160a01b0382811660048301527f0000000000000000000000000000000000000000000000000000000000000000169063c3c5a54790602401602060405180830381865afa15801561149b573d5f803e3d5ffd5b505050506040513d601f19601f820116820180604052508101906114bf9190613ecc565b6114c95750611579565b60405162f53a4760e41b81526001600160a01b0382811660048301525f917f000000000000000000000000000000000000000000000000000000000000000090911690630f53a470906024015f60405180830381865afa15801561152f573d5f803e3d5ffd5b505050506040513d5f823e601f3d908101601f191682016040526115569190810190613f63565b90508560e001518160e001511115611576578461157281613e40565b9550505b50505b8061158381613e40565b9150506113f1565b509095945050505050565b60605f805b6003548110156116df57846001600160a01b0316600382815481106115c2576115c2613e2c565b5f9182526020909120600160079092020101546001600160a01b0316036115f557816115ed81613e40565b9250506116cd565b5f7f00000000000000000000000000000000000000000000000000000000000000006001600160a01b0316636322961d6003848154811061163857611638613e2c565b905f5260205f2090600702016003016040518263ffffffff1660e01b815260040161166391906140c7565b602060405180830381865afa15801561167e573d5f803e3d5ffd5b505050506040513d601f19601f820116820180604052508101906116a291906140ac565b9050856001600160a01b0316816001600160a01b0316036116cb57826116c781613e40565b9350505b505b806116d781613e40565b91505061159b565b505f80841180156116ef57508184105b6116f957816116fb565b835b90505f816001600160401b0381111561171657611716613bfb565b60405190808252806020026020018201604052801561174f57816020015b61173c61392c565b8152602001906001900390816117345790505b506003549091505f905b5f8111801561176757508382105b15610973575f600361177a600184613e58565b8154811061178a5761178a613e2c565b905f5260205f2090600702016040518060e00160405290815f8201548152602001600182015f9054906101000a90046001600160a01b03166001600160a01b03166001600160a01b031681526020016002820180546117e890613e6b565b80601f016020809104026020016040519081016040528092919081815260200182805461181490613e6b565b801561185f5780601f106118365761010080835404028352916020019161185f565b820191905f5260205f20905b81548152906001019060200180831161184257829003601f168201915b5050505050815260200160038201805461187890613e6b565b80601f01602080910402602001604051908101604052809291908181526020018280546118a490613e6b565b80156118ef5780601f106118c6576101008083540402835291602001916118ef565b820191905f5260205f20905b8154815290600101906020018083116118d257829003601f168201915b505050505081526020016004820154815260200160058201805461191290613e6b565b80601f016020809104026020016040519081016040528092919081815260200182805461193e90613e6b565b80156119895780601f1061196057610100808354040283529160200191611989565b820191905f5260205f20905b81548152906001019060200180831161196c57829003601f168201915b505050505081526020016006820154815250509050886001600160a01b031681602001516001600160a01b0316036119ec57808484815181106119ce576119ce613e2c565b602002602001018190525082806119e490613e40565b935050611ac6565b6060810151604051636322961d60e01b81525f916001600160a01b037f00000000000000000000000000000000000000000000000000000000000000001691636322961d91611a3d9160040161409a565b602060405180830381865afa158015611a58573d5f803e3d5ffd5b505050506040513d601f19601f82011682018060405250810190611a7c91906140ac565b9050896001600160a01b0316816001600160a01b031603611ac45781858581518110611aaa57611aaa613e2c565b60200260200101819052508380611ac090613e40565b9450505b505b5080611ad181613ea3565b915050611759565b611ae1613693565b611ae96136bf565b565b611af3613544565b611afb61355f565b66038d7ea4c68000341015611b2357604051632d562a5160e11b815260040160405180910390fd5b604051636322961d60e01b81525f906001600160a01b037f00000000000000000000000000000000000000000000000000000000000000001690636322961d90611b739088908890600401614174565b602060405180830381865afa158015611b8e573d5f803e3d5ffd5b505050506040513d601f19601f82011682018060405250810190611bb291906140ac565b90506001600160a01b038116611bdb57604051635283857b60e11b815260040160405180910390fd5b336001600160a01b03821603611c04576040516350daa31b60e01b815260040160405180910390fd5b60405162f53a4760e41b81526001600160a01b0382811660048301527f00000000000000000000000000000000000000000000000000000000000000001690630f53a470906024015f60405180830381865afa158015611c66573d5f803e3d5ffd5b505050506040513d5f823e601f3d908101601f19168201604052611c8d9190810190613f63565b6101800151611caf57604051635283857b60e11b815260040160405180910390fd5b5f611cb93461251c565b90505f611cc68234613e58565b6001600160a01b0384165f90815260026020526040812080549293508392909190611cf29084906139bc565b90915550506001546001600160a01b03165f9081526002602052604081208054849290611d209084906139bc565b9091555050600480545f9182611d3583613e40565b91905055905060036040518060e00160405280838152602001336001600160a01b03168152602001611d65613713565b81526020018a8a8080601f0160208091040260200160405190810160405280939291908181526020018383808284375f920191909152505050908252503460208083019190915260408051601f8b0183900483028101830182528a8152920191908a908a90819084018382808284375f920182905250938552505042602093840152508354600180820186559482529082902083516007909202019081559082015192810180546001600160a01b0319166001600160a01b039094169390931790925560408101519091906002820190611e3f90826141d4565b5060608201516003820190611e5490826141d4565b506080820151600482015560a08201516005820190611e7390826141d4565b5060c09190910151600690910155604051634f4a7ebf60e01b81526001600160a01b038581166004830152602482018490527f00000000000000000000000000000000000000000000000000000000000000001690634f4a7ebf906044015f604051808303815f87803b158015611ee8575f80fd5b505af1158015611efa573d5f803e3d5ffd5b5050335f90815260076020526040902054159150508015611f9c575060405163c3c5a54760e01b81523360048201527f00000000000000000000000000000000000000000000000000000000000000006001600160a01b03169063c3c5a54790602401602060405180830381865afa158015611f78573d5f803e3d5ffd5b505050506040513d601f19601f82011682018060405250810190611f9c9190613ecc565b15611ff45760058054335f818152600660205260408120839055600183018455929092527f036b6384b5eca791c62761152d0c79bb0604c104a5fb6f4eb0703f3154bb3db00180546001600160a01b03191690911790555b335f90815260076020526040812080543492906120129084906139bc565b9091555050335f9081526008602052604081208054600192906120369084906139bc565b925050819055503460095f82825461204e91906139bc565b90915550506001600160a01b03841633827fe5df50405205390fe8b0921a99406b4ca55dca680f5afda418b39bd573a13478612088613713565b8c8c348a8a8f8f426040516120a59998979695949392919061428f565b60405180910390a4505050506120c760015f805160206143c183398151915255565b50505050565b6120d5613693565b611ae95f613843565b60605f805b6003548110156121835785856040516020016121009291906142f2565b604051602081830303815290604052805190602001206003828154811061212957612129613e2c565b905f5260205f2090600702016003016040516020016121489190614301565b6040516020818303038152906040528051906020012003612171578161216d81613e40565b9250505b8061217b81613e40565b9150506120e3565b505f808411801561219357508184105b61219d578161219f565b835b90505f816001600160401b038111156121ba576121ba613bfb565b6040519080825280602002602001820160405280156121f357816020015b6121e061392c565b8152602001906001900390816121d85790505b506003549091505f905b5f8111801561220b57508382105b156124ff5788886040516020016122239291906142f2565b6040516020818303038152906040528051906020012060036001836122489190613e58565b8154811061225857612258613e2c565b905f5260205f2090600702016003016040516020016122779190614301565b60405160208183030381529060405280519060200120036124ed57600361229f600183613e58565b815481106122af576122af613e2c565b905f5260205f2090600702016040518060e00160405290815f8201548152602001600182015f9054906101000a90046001600160a01b03166001600160a01b03166001600160a01b0316815260200160028201805461230d90613e6b565b80601f016020809104026020016040519081016040528092919081815260200182805461233990613e6b565b80156123845780601f1061235b57610100808354040283529160200191612384565b820191905f5260205f20905b81548152906001019060200180831161236757829003601f168201915b5050505050815260200160038201805461239d90613e6b565b80601f01602080910402602001604051908101604052809291908181526020018280546123c990613e6b565b80156124145780601f106123eb57610100808354040283529160200191612414565b820191905f5260205f20905b8154815290600101906020018083116123f757829003601f168201915b505050505081526020016004820154815260200160058201805461243790613e6b565b80601f016020809104026020016040519081016040528092919081815260200182805461246390613e6b565b80156124ae5780601f10612485576101008083540402835291602001916124ae565b820191905f5260205f20905b81548152906001019060200180831161249157829003601f168201915b505050505081526020016006820154815250508383815181106124d3576124d3613e2c565b602002602001018190525081806124e990613e40565b9250505b806124f781613ea3565b9150506121fd565b5090979650505050505050565b612514613693565b611ae9613892565b5f61271061252b60c884614373565b61097b919061438a565b5f61253e613589565b905090565b6003546060905f908311612557578261255b565b6003545b90505f816001600160401b0381111561257657612576613bfb565b6040519080825280602002602001820160405280156125af57816020015b61259c61392c565b8152602001906001900390816125945790505b5090505f5b8281101561282a576003805482906125ce90600190613e58565b6125d89190613e58565b815481106125e8576125e8613e2c565b905f5260205f2090600702016040518060e00160405290815f8201548152602001600182015f9054906101000a90046001600160a01b03166001600160a01b03166001600160a01b0316815260200160028201805461264690613e6b565b80601f016020809104026020016040519081016040528092919081815260200182805461267290613e6b565b80156126bd5780601f10612694576101008083540402835291602001916126bd565b820191905f5260205f20905b8154815290600101906020018083116126a057829003601f168201915b505050505081526020016003820180546126d690613e6b565b80601f016020809104026020016040519081016040528092919081815260200182805461270290613e6b565b801561274d5780601f106127245761010080835404028352916020019161274d565b820191905f5260205f20905b81548152906001019060200180831161273057829003601f168201915b505050505081526020016004820154815260200160058201805461277090613e6b565b80601f016020809104026020016040519081016040528092919081815260200182805461279c90613e6b565b80156127e75780601f106127be576101008083540402835291602001916127e7565b820191905f5260205f20905b8154815290600101906020018083116127ca57829003601f168201915b5050505050815260200160068201548152505082828151811061280c5761280c613e2c565b6020026020010181905250808061282290613e40565b9150506125b4565b509392505050565b61283a613693565b6001600160a01b038116612861576040516387ac4dbf60e01b815260040160405180910390fd5b600180546001600160a01b038381166001600160a01b0319831681179093556040519116919082907f8e48a4de7367d52e4053a25ac618738501e6235da380868ea1784ee66e74d0fc906128b89042815260200190565b60405180910390a35050565b6128cc61392c565b5f821180156128dc575060045482105b61291e5760405162461bcd60e51b815260206004820152600e60248201526d125b9d985b1a59081d1a5c08125160921b60448201526064015b60405180910390fd5b600361292b600184613e58565b8154811061293b5761293b613e2c565b905f5260205f2090600702016040518060e00160405290815f8201548152602001600182015f9054906101000a90046001600160a01b03166001600160a01b03166001600160a01b0316815260200160028201805461299990613e6b565b80601f01602080910402602001604051908101604052809291908181526020018280546129c590613e6b565b8015612a105780601f106129e757610100808354040283529160200191612a10565b820191905f5260205f20905b8154815290600101906020018083116129f357829003601f168201915b50505050508152602001600382018054612a2990613e6b565b80601f0160208091040260200160405190810160405280929190818152602001828054612a5590613e6b565b8015612aa05780601f10612a7757610100808354040283529160200191612aa0565b820191905f5260205f20905b815481529060010190602001808311612a8357829003601f168201915b5050505050815260200160048201548152602001600582018054612ac390613e6b565b80601f0160208091040260200160405190810160405280929190818152602001828054612aef90613e6b565b8015612b3a5780601f10612b1157610100808354040283529160200191612b3a565b820191905f5260205f20905b815481529060010190602001808311612b1d57829003601f168201915b505050505081526020016006820154815250509050919050565b612b5c613693565b612b646138d4565b4780612bab5760405162461bcd60e51b81526020600482015260166024820152754e6f2062616c616e636520746f20776974686472617760501b6044820152606401612915565b5f80546040516001600160a01b039091169083908381818185875af1925050503d805f8114612bf5576040519150601f19603f3d011682016040523d82523d5f602084013e612bfa565b606091505b5050905080612c1c576040516312171d8360e31b815260040160405180910390fd5b5050565b60605f612c2b613589565b9050805f03612c6b57604080515f808252602082019092529061282a565b612c5161396e565b815260200190600190039081612c49579050509392505050565b5f816001600160401b03811115612c8457612c84613bfb565b604051908082528060200260200182016040528015612cbd57816020015b612caa61396e565b815260200190600190039081612ca25790505b5090505f805b83811015612eae575f612cd58261360a565b90506001600160a01b0381161580612d72575060405163c3c5a54760e01b81526001600160a01b0382811660048301527f0000000000000000000000000000000000000000000000000000000000000000169063c3c5a54790602401602060405180830381865afa158015612d4c573d5f803e3d5ffd5b505050506040513d601f19601f82011682018060405250810190612d709190613ecc565b155b15612d7d5750612e9c565b60405162f53a4760e41b81526001600160a01b0382811660048301525f917f000000000000000000000000000000000000000000000000000000000000000090911690630f53a470906024015f60405180830381865afa158015612de3573d5f803e3d5ffd5b505050506040513d5f823e601f3d908101601f19168201604052612e0a9190810190613f63565b60e081015190915015612e99576040518060c0016040528082602001518152602001836001600160a01b031681526020018260e0015181526020018261010001516001600160401b031681526020018260a0015163ffffffff1681526020015f815250858581518110612e7f57612e7f613e2c565b60200260200101819052508380612e9590613e40565b9450505b50505b80612ea681613e40565b915050612cc3565b505f816001600160401b03811115612ec857612ec8613bfb565b604051908082528060200260200182016040528015612f0157816020015b612eee61396e565b815260200190600190039081612ee65790505b5090505f5b82811015612f5857838181518110612f2057612f20613e2c565b6020026020010151828281518110612f3a57612f3a613e2c565b60200260200101819052508080612f5090613e40565b915050612f06565b50612f6281613441565b5f5b8151811015612fab57612f788160016139bc565b828281518110612f8a57612f8a613e2c565b602090810291909101015160a0015280612fa381613e40565b915050612f64565b50855f03612fed57604080515f8082526020820190925290610e2f565b612fd061396e565b815260200190600190039081612fc8579050509695505050505050565b5f81518710612ffd578151612fff565b865b90505f816001600160401b0381111561301a5761301a613bfb565b60405190808252806020026020018201604052801561305357816020015b61304061396e565b8152602001906001900390816130385790505b5090505f5b828110156130aa5783818151811061307257613072613e2c565b602002602001015182828151811061308c5761308c613e2c565b602002602001018190525080806130a290613e40565b915050613058565b50979650505050505050565b6130be613693565b6130c6613544565b805f036130e657604051630eb8664d60e31b815260040160405180910390fd5b6001546001600160a01b03165f9081526002602052604090205480821115613121576040516310bb459b60e11b815260040160405180910390fd5b61312b8282613e58565b600180546001600160a01b039081165f9081526002602052604080822094909455915492519192169084908381818185875af1925050503d805f811461318c576040519150601f19603f3d011682016040523d82523d5f602084013e613191565b606091505b50509050806131b3576040516312171d8360e31b815260040160405180910390fd5b600154604080518581524260208201526001600160a01b03909216917fdb40823673150fd23805eb48a4a6dfc80faab80eedffad0bc22036349ced5e6b9101611057565b6131ff613693565b6001600160a01b03811661322857604051631e4fbdf760e01b81525f6004820152602401612915565b61107781613843565b613239613544565b61324161355f565b335f908152600260205260408120549081900361327157604051630eb8664d60e31b815260040160405180910390fd5b335f81815260026020526040808220919091555163c3c5a54760e01b815260048101919091526001600160a01b037f0000000000000000000000000000000000000000000000000000000000000000169063c3c5a54790602401602060405180830381865afa1580156132e6573d5f803e3d5ffd5b505050506040513d601f19601f8201168201806040525081019061330a9190613ecc565b156133895760405162d9774960e01b8152336004820152602481018290527f00000000000000000000000000000000000000000000000000000000000000006001600160a01b03169062d97749906044015f604051808303815f87803b158015613372575f80fd5b505af1158015613384573d5f803e3d5ffd5b505050505b6040515f90339083908381818185875af1925050503d805f81146133c8576040519150601f19603f3d011682016040523d82523d5f602084013e6133cd565b606091505b50509050806133ef576040516312171d8360e31b815260040160405180910390fd5b6040805183815242602082015233917f788ed5f40f3b0b54693ff3a6857a71316636ea70ef65b0d1436f661291f06971910160405180910390a25050611ae960015f805160206143c183398151915255565b80515f5b8181101561353f575f6134598260016139bc565b90505b8281101561352c5783818151811061347657613476613e2c565b60200260200101516040015184838151811061349457613494613e2c565b602002602001015160400151101561351a575f8483815181106134b9576134b9613e2c565b602002602001015190508482815181106134d5576134d5613e2c565b60200260200101518584815181106134ef576134ef613e2c565b60200260200101819052508085838151811061350d5761350d613e2c565b6020026020010181905250505b8061352481613e40565b91505061345c565b508061353781613e40565b915050613445565b505050565b61354c6138fd565b60025f805160206143c183398151915255565b5f54600160a01b900460ff1615611ae95760405163d93c066560e01b815260040160405180910390fd5b5f7f00000000000000000000000000000000000000000000000000000000000000006001600160a01b0316635f4c5d336040518163ffffffff1660e01b8152600401602060405180830381865afa1580156135e6573d5f803e3d5ffd5b505050506040513d601f19601f8201168201806040525081019061253e91906143a9565b60405163d61b9f1760e01b8152600481018290525f907f00000000000000000000000000000000000000000000000000000000000000006001600160a01b03169063d61b9f1790602401602060405180830381865afa15801561366f573d5f803e3d5ffd5b505050506040513d601f19601f8201168201806040525081019061097b91906140ac565b5f546001600160a01b03163314611ae95760405163118cdaa760e01b8152336004820152602401612915565b6136c76138d4565b5f805460ff60a01b191690557f5db9ee0a495bf2e6ff9c91a7834c1ba4fdd244a5e8aa4e537bd38aeae4b073aa335b6040516001600160a01b03909116815260200160405180910390a1565b60405163c3c5a54760e01b81523360048201526060907f00000000000000000000000000000000000000000000000000000000000000006001600160a01b03169063c3c5a54790602401602060405180830381865afa158015613778573d5f803e3d5ffd5b505050506040513d601f19601f8201168201806040525081019061379c9190613ecc565b156138315760405162f53a4760e41b81523360048201527f00000000000000000000000000000000000000000000000000000000000000006001600160a01b031690630f53a470906024015f60405180830381865afa158015613801573d5f803e3d5ffd5b505050506040513d5f823e601f3d908101601f191682016040526138289190810190613f63565b60200151905090565b5060408051602081019091525f815290565b5f80546001600160a01b038381166001600160a01b0319831681178455604051919092169283917f8be0079c531659141344cd1fd0a4f28419497f9722a3daafe3b4186f6b6457e09190a35050565b61389a61355f565b5f805460ff60a01b1916600160a01b1790557f62e78cea01bee320cd4e420270b5ea74000d11b0c9f74754ebdbfc544b05a2586136f63390565b5f54600160a01b900460ff16611ae957604051638dfc202b60e01b815260040160405180910390fd5b5f805160206143c183398151915254600203611ae957604051633ee5aeb560e01b815260040160405180910390fd5b6040518060e001604052805f81526020015f6001600160a01b0316815260200160608152602001606081526020015f8152602001606081526020015f81525090565b6040518060c00160405280606081526020015f6001600160a01b031681526020015f81526020015f81526020015f81526020015f81525090565b634e487b7160e01b5f52601160045260245ffd5b8082018082111561097b5761097b6139a8565b6001600160a01b0381168114611077575f80fd5b5f80604083850312156139f4575f80fd5b82356139ff816139cf565b946020939093013593505050565b5f5b83811015613a27578181015183820152602001613a0f565b50505f910152565b5f8151808452613a46816020860160208601613a0d565b601f01601f19169290920160200192915050565b8051825260018060a01b0360208201511660208301525f604082015160e06040850152613a8a60e0850182613a2f565b905060608301518482036060860152613aa38282613a2f565b9150506080830151608085015260a083015184820360a0860152613ac78282613a2f565b91505060c083015160c08501528091505092915050565b5f602080830181845280855180835260408601915060408160051b87010192508387015f5b82811015613b3157603f19888603018452613b1f858351613a5a565b94509285019290850190600101613b03565b5092979650505050505050565b5f60208284031215613b4e575f80fd5b5035919050565b5f6020808301818452808551808352604092508286019150828160051b8701018488015f5b83811015613bed57603f19898403018552815160c08151818652613ba082870182613a2f565b8a8401516001600160a01b0316878c0152898401518a880152606080850151908801526080808501519088015260a093840151939096019290925250509386019390860190600101613b7a565b509098975050505050505050565b634e487b7160e01b5f52604160045260245ffd5b6040516101a081016001600160401b0381118282101715613c3257613c32613bfb565b60405290565b604051601f8201601f191681016001600160401b0381118282101715613c6057613c60613bfb565b604052919050565b5f6001600160401b03821115613c8057613c80613bfb565b50601f01601f191660200190565b5f60208284031215613c9e575f80fd5b81356001600160401b03811115613cb3575f80fd5b8201601f81018413613cc3575f80fd5b8035613cd6613cd182613c68565b613c38565b818152856020838501011115613cea575f80fd5b816020840160208301375f91810160200191909152949350505050565b5f8083601f840112613d17575f80fd5b5081356001600160401b03811115613d2d575f80fd5b602083019150836020828501011115613d44575f80fd5b9250929050565b5f805f8060408587031215613d5e575f80fd5b84356001600160401b0380821115613d74575f80fd5b613d8088838901613d07565b90965094506020870135915080821115613d98575f80fd5b50613da587828801613d07565b95989497509550505050565b5f805f60408486031215613dc3575f80fd5b83356001600160401b03811115613dd8575f80fd5b613de486828701613d07565b909790965060209590950135949350505050565b5f60208284031215613e08575f80fd5b8135613e13816139cf565b9392505050565b602081525f613e136020830184613a5a565b634e487b7160e01b5f52603260045260245ffd5b5f60018201613e5157613e516139a8565b5060010190565b8181038181111561097b5761097b6139a8565b600181811c90821680613e7f57607f821691505b602082108103613e9d57634e487b7160e01b5f52602260045260245ffd5b50919050565b5f81613eb157613eb16139a8565b505f190190565b80518015158114613ec7575f80fd5b919050565b5f60208284031215613edc575f80fd5b613e1382613eb8565b8051613ec7816139cf565b5f82601f830112613eff575f80fd5b8151613f0d613cd182613c68565b818152846020838601011115613f21575f80fd5b613f32826020830160208701613a0d565b949350505050565b80516001600160401b0381168114613ec7575f80fd5b805163ffffffff81168114613ec7575f80fd5b5f60208284031215613f73575f80fd5b81516001600160401b0380821115613f89575f80fd5b908301906101a08286031215613f9d575f80fd5b613fa5613c0f565b613fae83613ee5565b8152602083015182811115613fc1575f80fd5b613fcd87828601613ef0565b602083015250613fdf60408401613f3a565b6040820152613ff060608401613f3a565b606082015261400160808401613f3a565b608082015261401260a08401613f50565b60a082015260c083015182811115614028575f80fd5b61403487828601613ef0565b60c08301525060e083015160e08201526101009150614054828401613f3a565b918101919091526101208281015190820152610140808301519082015261016080830151908201526101809061408b828401613eb8565b91810191909152949350505050565b602081525f613e136020830184613a2f565b5f602082840312156140bc575f80fd5b8151613e13816139cf565b5f60208083525f84546140d981613e6b565b8084870152604060018084165f81146140f957600181146141135761413e565b60ff1985168984015283151560051b89018301955061413e565b895f52865f205f5b858110156141365781548b820186015290830190880161411b565b8a0184019650505b509398975050505050505050565b81835281816020850137505f828201602090810191909152601f909101601f19169091010190565b602081525f613f3260208301848661414c565b601f82111561353f575f81815260208120601f850160051c810160208610156141ad5750805b601f850160051c820191505b818110156141cc578281556001016141b9565b505050505050565b81516001600160401b038111156141ed576141ed613bfb565b614201816141fb8454613e6b565b84614187565b602080601f831160018114614234575f841561421d5750858301515b5f19600386901b1c1916600185901b1785556141cc565b5f85815260208120601f198616915b8281101561426257888601518255948401946001909101908401614243565b508582101561427f57878501515f19600388901b60f8161c191681555b5050505050600190811b01905550565b60e081525f6142a160e083018c613a2f565b82810360208401526142b4818b8d61414c565b905088604084015287606084015286608084015282810360a08401526142db81868861414c565b9150508260c08301529a9950505050505050505050565b818382375f9101908152919050565b5f80835461430e81613e6b565b60018281168015614326576001811461433b57614367565b60ff1984168752821515830287019450614367565b875f526020805f205f5b8581101561435e5781548a820152908401908201614345565b50505082870194505b50929695505050505050565b808202811582820484141761097b5761097b6139a8565b5f826143a457634e487b7160e01b5f52601260045260245ffd5b500490565b5f602082840312156143b9575f80fd5b505191905056fe9b779b17422d0df92223018b32b4d1fa46e071723d6817e2486d003becc55f00a2646970667358221220b16396c32672dfacfdcd050af098d43520cefc99fc3ed84917ecf0fab69706d864736f6c63430008140033","linkReferences":{}},"methodIdentifiers":{"FEE_DENOMINATOR()":"d73792a9","MIN_TIP_AMOUNT()":"429895ac","PLATFORM_FEE_RATE()":"2930fa49","calculateFee(uint256)":"99a5d747","collectPlatformFees(uint256)":"eba31166","emergencyWithdraw()":"db2e21bc","getActiveCreators()":"1236660b","getRecentTips(uint256)":"a0d1fe42","getTipById(uint256)":"c7f9488c","getTipHistory(address,uint256)":"1cef502b","getTipsReceived(string,uint256)":"7e433a5c","getTipsSent(address,uint256)":"019f4c09","getTopCreators(uint256)":"e843f61c","getTopTippers(uint256)":"07f4c8f9","getTotalTipCount()":"38752e65","getTotalUsers()":"9be572f6","getTotalVolume()":"0b9d98e9","getUserRank(string)":"127da26a","getWithdrawableBalance(address)":"843592d3","owner()":"8da5cb5b","pause()":"8456cb59","paused()":"5c975abb","platformWallet()":"fa2af9da","profileRegistry()":"c9bb1a48","renounceOwnership()":"715018a6","sendTip(string,string)":"54cafb04","transferOwnership(address)":"f2fde38b","unpause()":"3f4ba83a","updatePlatformWallet(address)":"ada4ef30","withdrawAllTips()":"ffcb9ccd","withdrawTips(uint256)":"0d61b95f"},"id":24}