{"abi":[{"type":"constructor","inputs":[],"stateMutability":"nonpayable"},{"type":"function","name":"FOLLOWERS_WEIGHT","inputs":[],"outputs":[{"name":"","type":"uint32","internalType":"uint32"}],"stateMutability":"view"},{"type":"function","name":"MAX_CREDIT_SCORE","inputs":[],"outputs":[{"name":"","type":"uint32","internalType":"uint32"}],"stateMutability":"view"},{"type":"function","name":"MAX_USERNAME_LENGTH","inputs":[],"outputs":[{"name":"","type":"uint8","internalType":"uint8"}],"stateMutability":"view"},{"type":"function","name":"MIN_USERNAME_LENGTH","inputs":[],"outputs":[{"name":"","type":"uint8","internalType":"uint8"}],"stateMutability":"view"},{"type":"function","name":"POSTS_WEIGHT","inputs":[],"outputs":[{"name":"","type":"uint32","internalType":"uint32"}],"stateMutability":"view"},{"type":"function","name":"REPLIES_WEIGHT","inputs":[],"outputs":[{"name":"","type":"uint32","internalType":"uint32"}],"stateMutability":"view"},{"type":"function","name":"SCORE_DIVISOR","inputs":[],"outputs":[{"name":"","type":"uint32","internalType":"uint32"}],"stateMutability":"view"},{"type":"function","name":"adminDeactivateProfile","inputs":[{"name":"user","type":"address","internalType":"address"}],"outputs":[],"stateMutability":"nonpayable"},{"type":"function","name":"calculateCreditScore","inputs":[{"name":"followers","type":"uint64","internalType":"uint64"},{"name":"posts","type":"uint64","internalType":"uint64"},{"name":"replies","type":"uint64","internalType":"uint64"}],"outputs":[{"name":"","type":"uint32","internalType":"uint32"}],"stateMutability":"pure"},{"type":"function","name":"deactivateProfile","inputs":[],"outputs":[],"stateMutability":"nonpayable"},{"type":"function","name":"getAddressByUsername","inputs":[{"name":"username","type":"string","internalType":"string"}],"outputs":[{"name":"","type":"address","internalType":"address"}],"stateMutability":"view"},{"type":"function","name":"getProfile","inputs":[{"name":"user","type":"address","internalType":"address"}],"outputs":[{"name":"","type":"tuple","internalType":"struct TipzProfile.Profile","components":[{"name":"walletAddress","type":"address","internalType":"address"},{"name":"xUsername","type":"string","internalType":"string"},{"name":"xFollowers","type":"uint64","internalType":"uint64"},{"name":"xPosts","type":"uint64","internalType":"uint64"},{"name":"xReplies","type":"uint64","internalType":"uint64"},{"name":"creditScore","type":"uint32","internalType":"uint32"},{"name":"profileImageIpfs","type":"string","internalType":"string"},{"name":"totalTipsReceived","type":"uint256","internalType":"uint256"},{"name":"totalTipsCount","type":"uint64","internalType":"uint64"},{"name":"withdrawableBalance","type":"uint256","internalType":"uint256"},{"name":"totalWithdrawn","type":"uint256","internalType":"uint256"},{"name":"createdAt","type":"uint256","internalType":"uint256"},{"name":"isActive","type":"bool","internalType":"bool"}]}],"stateMutability":"view"},{"type":"function","name":"getProfileByUsername","inputs":[{"name":"username","type":"string","internalType":"string"}],"outputs":[{"name":"","type":"tuple","internalType":"struct TipzProfile.Profile","components":[{"name":"walletAddress","type":"address","internalType":"address"},{"name":"xUsername","type":"string","internalType":"string"},{"name":"xFollowers","type":"uint64","internalType":"uint64"},{"name":"xPosts","type":"uint64","internalType":"uint64"},{"name":"xReplies","type":"uint64","internalType":"uint64"},{"name":"creditScore","type":"uint32","internalType":"uint32"},{"name":"profileImageIpfs","type":"string","internalType":"string"},{"name":"totalTipsReceived","type":"uint256","internalType":"uint256"},{"name":"totalTipsCount","type":"uint64","internalType":"uint64"},{"name":"withdrawableBalance","type":"uint256","internalType":"uint256"},{"name":"totalWithdrawn","type":"uint256","internalType":"uint256"},{"name":"createdAt","type":"uint256","internalType":"uint256"},{"name":"isActive","type":"bool","internalType":"bool"}]}],"stateMutability":"view"},{"type":"function","name":"getRegisteredUserAtIndex","inputs":[{"name":"index","type":"uint256","internalType":"uint256"}],"outputs":[{"name":"","type":"address","internalType":"address"}],"stateMutability":"view"},{"type":"function","name":"getTotalRegistrations","inputs":[],"outputs":[{"name":"","type":"uint256","internalType":"uint256"}],"stateMutability":"view"},{"type":"function","name":"isRegistered","inputs":[{"name":"user","type":"address","internalType":"address"}],"outputs":[{"name":"","type":"bool","internalType":"bool"}],"stateMutability":"view"},{"type":"function","name":"isUsernameTaken","inputs":[{"name":"username","type":"string","internalType":"string"}],"outputs":[{"name":"","type":"bool","internalType":"bool"}],"stateMutability":"view"},{"type":"function","name":"owner","inputs":[],"outputs":[{"name":"","type":"address","internalType":"address"}],"stateMutability":"view"},{"type":"function","name":"pause","inputs":[],"outputs":[],"stateMutability":"nonpayable"},{"type":"function","name":"paused","inputs":[],"outputs":[{"name":"","type":"bool","internalType":"bool"}],"stateMutability":"view"},{"type":"function","name":"reactivateProfile","inputs":[],"outputs":[],"stateMutability":"nonpayable"},{"type":"function","name":"registerProfile","inputs":[{"name":"username","type":"string","internalType":"string"},{"name":"xFollowers","type":"uint64","internalType":"uint64"},{"name":"xPosts","type":"uint64","internalType":"uint64"},{"name":"xReplies","type":"uint64","internalType":"uint64"},{"name":"profileImageIpfs","type":"string","internalType":"string"}],"outputs":[],"stateMutability":"nonpayable"},{"type":"function","name":"renounceOwnership","inputs":[],"outputs":[],"stateMutability":"nonpayable"},{"type":"function","name":"transferOwnership","inputs":[{"name":"newOwner","type":"address","internalType":"address"}],"outputs":[],"stateMutability":"nonpayable"},{"type":"function","name":"unpause","inputs":[],"outputs":[],"stateMutability":"nonpayable"},{"type":"function","name":"updateProfileMetadata","inputs":[{"name":"profileImageIpfs","type":"string","internalType":"string"}],"outputs":[],"stateMutability":"nonpayable"},{"type":"function","name":"updateTipStats","inputs":[{"name":"recipient","type":"address","internalType":"address"},{"name":"amount","type":"uint256","internalType":"uint256"}],"outputs":[],"stateMutability":"nonpayable"},{"type":"function","name":"updateWithdrawalStats","inputs":[{"name":"user","type":"address","internalType":"address"},{"name":"amount","type":"uint256","internalType":"uint256"}],"outputs":[],"stateMutability":"nonpayable"},{"type":"function","name":"updateXMetrics","inputs":[{"name":"xFollowers","type":"uint64","internalType":"uint64"},{"name":"xPosts","type":"uint64","internalType":"uint64"},{"name":"xReplies","type":"uint64","internalType":"uint64"}],"outputs":[],"stateMutability":"nonpayable"},{"type":"event","name":"CreditScoreUpdated","inputs":[{"name":"user","type":"address","indexed":true,"internalType":"address"},{"name":"oldScore","type":"uint32","indexed":false,"internalType":"uint32"},{"name":"newScore","type":"uint32","indexed":false,"internalType":"uint32"},{"name":"timestamp","type":"uint256","indexed":false,"internalType":"uint256"}],"anonymous":false},{"type":"event","name":"OwnershipTransferred","inputs":[{"name":"previousOwner","type":"address","indexed":true,"internalType":"address"},{"name":"newOwner","type":"address","indexed":true,"internalType":"address"}],"anonymous":false},{"type":"event","name":"Paused","inputs":[{"name":"account","type":"address","indexed":false,"internalType":"address"}],"anonymous":false},{"type":"event","name":"ProfileCreated","inputs":[{"name":"user","type":"address","indexed":true,"internalType":"address"},{"name":"username","type":"string","indexed":false,"internalType":"string"},{"name":"creditScore","type":"uint32","indexed":false,"internalType":"uint32"},{"name":"timestamp","type":"uint256","indexed":false,"internalType":"uint256"}],"anonymous":false},{"type":"event","name":"ProfileDeactivated","inputs":[{"name":"user","type":"address","indexed":true,"internalType":"address"},{"name":"timestamp","type":"uint256","indexed":false,"internalType":"uint256"}],"anonymous":false},{"type":"event","name":"ProfileReactivated","inputs":[{"name":"user","type":"address","indexed":true,"internalType":"address"},{"name":"timestamp","type":"uint256","indexed":false,"internalType":"uint256"}],"anonymous":false},{"type":"event","name":"ProfileUpdated","inputs":[{"name":"user","type":"address","indexed":true,"internalType":"address"},{"name":"metadata","type":"string","indexed":false,"internalType":"string"},{"name":"timestamp","type":"uint256","indexed":false,"internalType":"uint256"}],"anonymous":false},{"type":"event","name":"Unpaused","inputs":[{"name":"account","type":"address","indexed":false,"internalType":"address"}],"anonymous":false},{"type":"error","name":"EmptyUsername","inputs":[]},{"type":"error","name":"EnforcedPause","inputs":[]},{"type":"error","name":"ExpectedPause","inputs":[]},{"type":"error","name":"InvalidAddress","inputs":[]},{"type":"error","name":"InvalidUsername","inputs":[]},{"type":"error","name":"InvalidUsernameLength","inputs":[]},{"type":"error","name":"OwnableInvalidOwner","inputs":[{"name":"owner","type":"address","internalType":"address"}]},{"type":"error","name":"OwnableUnauthorizedAccount","inputs":[{"name":"account","type":"address","internalType":"address"}]},{"type":"error","name":"ProfileAlreadyExists","inputs":[]},{"type":"error","name":"ProfileNotFound","inputs":[]},{"type":"error","name":"ReentrancyGuardReentrantCall","inputs":[]},{"type":"error","name":"UnauthorizedAccess","inputs":[]},{"type":"error","name":"UsernameAlreadyTaken","inputs":[]}],"bytecode":{"object":"0x608060405234801561000f575f80fd5b50338061003557604051631e4fbdf760e01b81525f600482015260240160405180910390fd5b61003e81610068565b5060017f9b779b17422d0df92223018b32b4d1fa46e071723d6817e2486d003becc55f00556100b7565b5f80546001600160a01b038381166001600160a01b0319831681178455604051919092169283917f8be0079c531659141344cd1fd0a4f28419497f9722a3daafe3b4186f6b6457e09190a35050565b611dcb806100c45f395ff3fe608060405234801561000f575f80fd5b50600436106101c5575f3560e01c80635c975abb116100fe5780638da5cb5b1161009e578063d61b9f171161006e578063d61b9f1714610396578063e867c20a146103a9578063f2fde38b146103bc578063fba61e2f146103cf575f80fd5b80638da5cb5b1461034b5780639a3d51541461035b578063bb580dfb14610363578063c3c5a5471461036b575f80fd5b8063715018a6116100d9578063715018a61461032057806375db7721146103285780637ac3c40b146103305780638456cb5914610343575f80fd5b80635c975abb146102d35780635f4c5d33146102e45780636322961d146102f5575f80fd5b80633f4ba83a1161016957806352209c991161014457806352209c991461029157806354203e09146102a45780635513802c146102ad5780635a8da9ee146102c0575f80fd5b80633f4ba83a1461026d5780634e4f3af9146102755780634f4a7ebf1461027e575f80fd5b8063155b1d98116101a4578063155b1d9814610220578063176c59191461023a5780631cd896c11461025d57806320a17bca14610265575f80fd5b8062d97749146101c9578063014179e5146101de5780630f53a47014610200575b5f80fd5b6101dc6101d73660046116fb565b6103e2565b005b6101e6603281565b60405163ffffffff90911681526020015b60405180910390f35b61021361020e366004611723565b610472565b6040516101f7919061177f565b610228600181565b60405160ff90911681526020016101f7565b61024d6102483660046118d5565b61069b565b60405190151581526020016101f7565b610228600f81565b6101dc6106dc565b6101dc61077e565b6101e661271081565b6101dc61028c3660046116fb565b61078e565b6101dc61029f366004611723565b610856565b6101e66103e881565b6102136102bb3660046118d5565b6108f5565b6101dc6102ce366004611929565b610b34565b5f54600160a01b900460ff1661024d565b6005546040519081526020016101f7565b6103086103033660046118d5565b610f7f565b6040516001600160a01b0390911681526020016101f7565b6101dc610fb3565b6101dc610fc4565b6101dc61033e3660046118d5565b611048565b6101dc611103565b5f546001600160a01b0316610308565b6101e6601e81565b6101e6601481565b61024d610379366004611723565b6001600160a01b03165f9081526003602052604090205460ff1690565b6103086103a43660046119c6565b611113565b6101e66103b73660046119dd565b611152565b6101dc6103ca366004611723565b6111d2565b6101dc6103dd3660046119dd565b611214565b6103ea61134e565b6001600160a01b0382165f9081526003602052604090205460ff16610422576040516372da560b60e01b815260040160405180910390fd5b6001600160a01b0382165f9081526001602052604081206006810180549192849261044e908490611a31565b9250508190555081816007015f8282546104689190611a44565b9091555050505050565b61047a61164e565b6001600160a01b0382165f9081526003602052604090205460ff166104b2576040516372da560b60e01b815260040160405180910390fd5b6001600160a01b038083165f9081526001602081815260409283902083516101a08101909452805490941683529083018054929392918401916104f490611a57565b80601f016020809104026020016040519081016040528092919081815260200182805461052090611a57565b801561056b5780601f106105425761010080835404028352916020019161056b565b820191905f5260205f20905b81548152906001019060200180831161054e57829003601f168201915b505050918352505060028201546001600160401b038082166020840152600160401b820481166040840152600160801b8204166060830152600160c01b900463ffffffff16608082015260038201805460a0909201916105ca90611a57565b80601f01602080910402602001604051908101604052809291908181526020018280546105f690611a57565b80156106415780601f1061061857610100808354040283529160200191610641565b820191905f5260205f20905b81548152906001019060200180831161062457829003601f168201915b50505091835250506004820154602082015260058201546001600160401b031660408201526006820154606082015260078201546080820152600882015460a082015260099091015460ff16151560c09091015292915050565b5f806001600160a01b0316600284846040516106b8929190611a8f565b908152604051908190036020019020546001600160a01b0316141590505b92915050565b6106e461137a565b335f9081526003602052604090205460ff16610713576040516372da560b60e01b815260040160405180910390fd5b335f8181526001602052604090819020600901805460ff19169055517fe73be80e107f661162e3ba617cba0149e57d12f70ff385e0c8db64a47dab4ec89061075e9042815260200190565b60405180910390a261077c60015f80516020611d7683398151915255565b565b61078661134e565b61077c611395565b61079661134e565b6001600160a01b0382165f9081526003602052604090205460ff166107ce576040516372da560b60e01b815260040160405180910390fd5b6001600160a01b0382165f908152600160205260408120600481018054919284926107fa908490611a44565b9091555050600581018054600191905f9061081f9084906001600160401b0316611a9e565b92506101000a8154816001600160401b0302191690836001600160401b0316021790555081816006015f8282546104689190611a44565b61085e61134e565b6001600160a01b0381165f9081526003602052604090205460ff16610896576040516372da560b60e01b815260040160405180910390fd5b6001600160a01b0381165f8181526001602052604090819020600901805460ff19169055517fe73be80e107f661162e3ba617cba0149e57d12f70ff385e0c8db64a47dab4ec8906108ea9042815260200190565b60405180910390a250565b6108fd61164e565b5f60028484604051610910929190611a8f565b908152604051908190036020019020546001600160a01b0316905080610949576040516372da560b60e01b815260040160405180910390fd5b6001600160a01b038082165f9081526001602081815260409283902083516101a081019094528054909416835290830180549293929184019161098b90611a57565b80601f01602080910402602001604051908101604052809291908181526020018280546109b790611a57565b8015610a025780601f106109d957610100808354040283529160200191610a02565b820191905f5260205f20905b8154815290600101906020018083116109e557829003601f168201915b505050918352505060028201546001600160401b038082166020840152600160401b820481166040840152600160801b8204166060830152600160c01b900463ffffffff16608082015260038201805460a090920191610a6190611a57565b80601f0160208091040260200160405190810160405280929190818152602001828054610a8d90611a57565b8015610ad85780601f10610aaf57610100808354040283529160200191610ad8565b820191905f5260205f20905b815481529060010190602001808311610abb57829003601f168201915b50505091835250506004820154602082015260058201546001600160401b031660408201526006820154606082015260078201546080820152600882015460a082015260099091015460ff16151560c090910152949350505050565b610b3c61137a565b610b446113e9565b335f9081526003602052604090205460ff1615610b74576040516337450d8560e11b815260040160405180910390fd5b5f869003610b9557604051634ccdfcb560e11b815260040160405180910390fd5b6001861080610ba45750600f86115b15610bc25760405163329b731760e01b815260040160405180910390fd5b5f6001600160a01b031660028888604051610bde929190611a8f565b908152604051908190036020019020546001600160a01b031614610c1557604051639e9987d960e01b815260040160405180910390fd5b610c1f8787611413565b610c3c57604051630a1de65160e31b815260040160405180910390fd5b5f610c48868686611152565b9050604051806101a00160405280336001600160a01b0316815260200189898080601f0160208091040260200160405190810160405280939291908181526020018383808284375f920191909152505050908252506001600160401b03808916602080840191909152888216604080850191909152918816606084015263ffffffff851660808401528151601f870182900482028101820190925285825260a09092019186908690819084018382808284375f9201829052509385525050506020808301829052604080840183905260608401839052608084018390524260a0850152600160c0909401849052338352838252909120835181546001600160a01b0319166001600160a01b03909116178155908301519091820190610d6d9082611b26565b5060408201516002820180546060850151608086015160a087015163ffffffff16600160c01b0263ffffffff60c01b196001600160401b03928316600160801b02166bffffffffffffffffffffffff60801b19938316600160401b026001600160801b0319909516929096169190911792909217169290921791909117905560c08201516003820190610e009082611b26565b5060e0820151600482015561010082015160058201805467ffffffffffffffff19166001600160401b03909216919091179055610120820151600682015561014082015160078201556101608201516008820155610180909101516009909101805460ff19169115159190911790556040513390600290610e84908b908b90611a8f565b9081526040805191829003602090810190922080546001600160a01b03949094166001600160a01b0319948516179055335f8181526003909352908220805460ff1916600190811790915560048054918201815583527f8a35acfbc15ff81a39ae7d344fd709f28e8600b4aa8c65c6b64bfe7fe36bd19b018054909316179091556005805491610f1383611be1565b9190505550336001600160a01b03167f3dfff5331d28928eff84300fea16fb732f0a176047c35d7f6d4b281966b617ea89898442604051610f579493929190611c21565b60405180910390a250610f7660015f80516020611d7683398151915255565b50505050505050565b5f60028383604051610f92929190611a8f565b908152604051908190036020019020546001600160a01b0316905092915050565b610fbb61134e565b61077c5f611565565b610fcc61137a565b335f9081526003602052604090205460ff16610ffb576040516372da560b60e01b815260040160405180910390fd5b335f81815260016020818152604092839020600901805460ff191690921790915590514281527e0329a08b2e3f0ca6d4bc2fcd37bbc67a166fcf3a79a35f4386bccb18944419910161075e565b61105061137a565b6110586113e9565b335f9081526003602052604090205460ff16611087576040516372da560b60e01b815260040160405180910390fd5b335f9081526001602052604090206003016110a3828483611c4d565b50336001600160a01b03167fdcb94c0b2c025b0736b4b62b1c595f2ca7ad4c711eada6026d477e87de9cca088383426040516110e193929190611d08565b60405180910390a26110ff60015f80516020611d7683398151915255565b5050565b61110b61134e565b61077c6115b4565b6004545f90821061112557505f919050565b6004828154811061113857611138611d2b565b5f918252602090912001546001600160a01b031692915050565b5f8061271061116b60146001600160401b038616611d3f565b61117f601e6001600160401b038816611d3f565b61119360326001600160401b038a16611d3f565b61119d9190611a44565b6111a79190611a44565b6111b19190611d56565b90506103e88111156111c8576103e89150506111cb565b90505b9392505050565b6111da61134e565b6001600160a01b03811661120857604051631e4fbdf760e01b81525f60048201526024015b60405180910390fd5b61121181611565565b50565b61121c61137a565b6112246113e9565b335f9081526003602052604090205460ff16611253576040516372da560b60e01b815260040160405180910390fd5b335f9081526001602052604081206002810180546001600160401b038781166001600160801b0319831617600160401b888316021767ffffffffffffffff60801b1916600160801b91871691909102179091559091600160c01b90910463ffffffff16906112c2868686611152565b60028401805463ffffffff60c01b1916600160c01b63ffffffff8481169182029290921790925560408051918616825260208201929092524281830152905191925033917fe2d2f39b74c9b5d792f149242e94bd1ccc8a92a56fdcfa69e7b0855e7c9c7ef99181900360600190a250505061134960015f80516020611d7683398151915255565b505050565b5f546001600160a01b0316331461077c5760405163118cdaa760e01b81523360048201526024016111ff565b6113826115f6565b60025f80516020611d7683398151915255565b61139d611625565b5f805460ff60a01b191690557f5db9ee0a495bf2e6ff9c91a7834c1ba4fdd244a5e8aa4e537bd38aeae4b073aa335b6040516001600160a01b03909116815260200160405180910390a1565b5f54600160a01b900460ff161561077c5760405163d93c066560e01b815260040160405180910390fd5b5f8083838080601f0160208091040260200160405190810160405280939291908181526020018383808284375f9201829052509394505050505b815181101561155a575f82828151811061146957611469611d2b565b01602001516001600160f81b03191690505f606160f81b821080159061149d5750603d60f91b6001600160f81b0319831611155b90505f604160f81b6001600160f81b03198416108015906114cc5750602d60f91b6001600160f81b0319841611155b90505f600360fc1b6001600160f81b03198516108015906114fb5750603960f81b6001600160f81b0319851611155b9050605f60f81b6001600160f81b03198516148315801561151a575082155b8015611524575081155b801561152e575080155b15611542575f9750505050505050506106d6565b5050505050808061155290611be1565b91505061144d565b506001949350505050565b5f80546001600160a01b038381166001600160a01b0319831681178455604051919092169283917f8be0079c531659141344cd1fd0a4f28419497f9722a3daafe3b4186f6b6457e09190a35050565b6115bc6113e9565b5f805460ff60a01b1916600160a01b1790557f62e78cea01bee320cd4e420270b5ea74000d11b0c9f74754ebdbfc544b05a2586113cc3390565b5f80516020611d768339815191525460020361077c57604051633ee5aeb560e01b815260040160405180910390fd5b5f54600160a01b900460ff1661077c57604051638dfc202b60e01b815260040160405180910390fd5b604051806101a001604052805f6001600160a01b03168152602001606081526020015f6001600160401b031681526020015f6001600160401b031681526020015f6001600160401b031681526020015f63ffffffff168152602001606081526020015f81526020015f6001600160401b031681526020015f81526020015f81526020015f81526020015f151581525090565b80356001600160a01b03811681146116f6575f80fd5b919050565b5f806040838503121561170c575f80fd5b611715836116e0565b946020939093013593505050565b5f60208284031215611733575f80fd5b6111cb826116e0565b5f81518084525f5b8181101561176057602081850181015186830182015201611744565b505f602082860101526020601f19601f83011685010191505092915050565b602081526117996020820183516001600160a01b03169052565b5f60208301516101a08060408501526117b66101c085018361173c565b915060408501516117d260608601826001600160401b03169052565b5060608501516001600160401b03811660808601525060808501516001600160401b03811660a08601525060a085015163ffffffff811660c08601525060c0850151848303601f190160e086015261182a838261173c565b92505060e0850151610100818187015280870151915050610120611858818701836001600160401b03169052565b86015161014086810191909152860151610160808701919091528601516101808087019190915290950151151593019290925250919050565b5f8083601f8401126118a1575f80fd5b5081356001600160401b038111156118b7575f80fd5b6020830191508360208285010111156118ce575f80fd5b9250929050565b5f80602083850312156118e6575f80fd5b82356001600160401b038111156118fb575f80fd5b61190785828601611891565b90969095509350505050565b80356001600160401b03811681146116f6575f80fd5b5f805f805f805f60a0888a03121561193f575f80fd5b87356001600160401b0380821115611955575f80fd5b6119618b838c01611891565b909950975087915061197560208b01611913565b965061198360408b01611913565b955061199160608b01611913565b945060808a01359150808211156119a6575f80fd5b506119b38a828b01611891565b989b979a50959850939692959293505050565b5f602082840312156119d6575f80fd5b5035919050565b5f805f606084860312156119ef575f80fd5b6119f884611913565b9250611a0660208501611913565b9150611a1460408501611913565b90509250925092565b634e487b7160e01b5f52601160045260245ffd5b818103818111156106d6576106d6611a1d565b808201808211156106d6576106d6611a1d565b600181811c90821680611a6b57607f821691505b602082108103611a8957634e487b7160e01b5f52602260045260245ffd5b50919050565b818382375f9101908152919050565b6001600160401b03818116838216019080821115611abe57611abe611a1d565b5092915050565b634e487b7160e01b5f52604160045260245ffd5b601f821115611349575f81815260208120601f850160051c81016020861015611aff5750805b601f850160051c820191505b81811015611b1e57828155600101611b0b565b505050505050565b81516001600160401b03811115611b3f57611b3f611ac5565b611b5381611b4d8454611a57565b84611ad9565b602080601f831160018114611b86575f8415611b6f5750858301515b5f19600386901b1c1916600185901b178555611b1e565b5f85815260208120601f198616915b82811015611bb457888601518255948401946001909101908401611b95565b5085821015611bd157878501515f19600388901b60f8161c191681555b5050505050600190811b01905550565b5f60018201611bf257611bf2611a1d565b5060010190565b81835281816020850137505f828201602090810191909152601f909101601f19169091010190565b606081525f611c34606083018688611bf9565b63ffffffff949094166020830152506040015292915050565b6001600160401b03831115611c6457611c64611ac5565b611c7883611c728354611a57565b83611ad9565b5f601f841160018114611ca9575f8515611c925750838201355b5f19600387901b1c1916600186901b178355611d01565b5f83815260209020601f19861690835b82811015611cd95786850135825560209485019460019092019101611cb9565b5086821015611cf5575f1960f88860031b161c19848701351681555b505060018560011b0183555b5050505050565b604081525f611d1b604083018587611bf9565b9050826020830152949350505050565b634e487b7160e01b5f52603260045260245ffd5b80820281158282048414176106d6576106d6611a1d565b5f82611d7057634e487b7160e01b5f52601260045260245ffd5b50049056fe9b779b17422d0df92223018b32b4d1fa46e071723d6817e2486d003becc55f00a26469706673582212201f2e2af6f31c474c50961e33b7c979b0a2d926c57bb76cb38319bfa19b89088b64736f6c63430008140033","linkReferences":{}},"methodIdentifiers":{"FOLLOWERS_WEIGHT()":"014179e5","MAX_CREDIT_SCORE()":"54203e09","MAX_USERNAME_LENGTH()":"1cd896c1","MIN_USERNAME_LENGTH()":"155b1d98","POSTS_WEIGHT()":"9a3d5154","REPLIES_WEIGHT()":"bb580dfb","SCORE_DIVISOR()":"4e4f3af9","adminDeactivateProfile(address)":"52209c99","calculateCreditScore(uint64,uint64,uint64)":"e867c20a","deactivateProfile()":"20a17bca","getAddressByUsername(string)":"6322961d","getProfile(address)":"0f53a470","getProfileByUsername(string)":"5513802c","getRegisteredUserAtIndex(uint256)":"d61b9f17","getTotalRegistrations()":"5f4c5d33","isRegistered(address)":"c3c5a547","isUsernameTaken(string)":"176c5919","owner()":"8da5cb5b","pause()":"8456cb59","paused()":"5c975abb","reactivateProfile()":"75db7721","registerProfile(string,uint64,uint64,uint64,string)":"5a8da9ee","renounceOwnership()":"715018a6","transferOwnership(address)":"f2fde38b","unpause()":"3f4ba83a","updateProfileMetadata(string)":"7ac3c40b","updateTipStats(address,uint256)":"4f4a7ebf","updateWithdrawalStats(address,uint256)":"00d97749","updateXMetrics(uint64,uint64,uint64)":"fba61e2f"},"id":25}